{
    "contractName": "Migrations",
    "abi": [
        {
            "constant": true,
            "inputs": [],
            "name": "last_completed_migration",
            "outputs": [
                {
                    "name": "",
                    "type": "uint256"
                }
            ],
            "payable": false,
            "stateMutability": "view",
            "type": "function"
        },
        {
            "constant": true,
            "inputs": [],
            "name": "owner",
            "outputs": [
                {
                    "name": "",
                    "type": "address"
                }
            ],
            "payable": false,
            "stateMutability": "view",
            "type": "function"
        },
        {
            "inputs": [],
            "payable": false,
            "stateMutability": "nonpayable",
            "type": "constructor"
        },
        {
            "constant": false,
            "inputs": [
                {
                    "name": "completed",
                    "type": "uint256"
                }
            ],
            "name": "setCompleted",
            "outputs": [],
            "payable": false,
            "stateMutability": "nonpayable",
            "type": "function"
        }
    ],
    "bytecode": "0x608060405234801561001057600080fd5b50336000806101000a81548173ffffffffffffffffffffffffffffffffffffffff021916908373ffffffffffffffffffffffffffffffffffffffff1602179055506101c2806100606000396000f300608060405260043610610057576000357c0100000000000000000000000000000000000000000000000000000000900463ffffffff168063445df0ac1461005c5780638da5cb5b14610087578063fdacd576146100de575b600080fd5b34801561006857600080fd5b5061007161010b565b6040518082815260200191505060405180910390f35b34801561009357600080fd5b5061009c610111565b604051808273ffffffffffffffffffffffffffffffffffffffff1673ffffffffffffffffffffffffffffffffffffffff16815260200191505060405180910390f35b3480156100ea57600080fd5b5061010960048036038101908080359060200190929190505050610136565b005b60015481565b6000809054906101000a900473ffffffffffffffffffffffffffffffffffffffff1681565b6000809054906101000a900473ffffffffffffffffffffffffffffffffffffffff1673ffffffffffffffffffffffffffffffffffffffff163373ffffffffffffffffffffffffffffffffffffffff16141561019357806001819055505b505600a165627a7a72305820922e2ba943a885957ac06cb1b7e3433333f9c57699c010a5318cf94d5d91bb150029",
    "source": "pragma solidity ^0.4.2;\n\ncontract Migrations {\n  address public owner;\n  uint public last_completed_migration;\n\n  modifier restricted() {\n    if (msg.sender == owner) _;\n  }\n\n  constructor () public {\n    owner = msg.sender;\n  }\n\n  function setCompleted(uint completed) public restricted {\n    last_completed_migration = completed;\n  }\n\n  function upgrade(address new_address) private restricted {\n    Migrations upgraded = Migrations(new_address);\n    upgraded.setCompleted(last_completed_migration);\n  }\n}\n",
    "sourcePath": "E:\\study\\cong nghe moi\\blockchain\\bai tap nhom\\election-2019_update\\contracts\\Migrations.sol",
    "compiler": {
        "name": "solc",
        "version": "0.4.25+commit.59dbf8f1.Emscripten.clang"
    },
    "schemaVersion": "3.2.0",
    "updatedAt": "2020-06-17T06:01:36.923Z",
    "networkType": "ethereum",
    "devdoc": {
        "methods": {}
    },
    "userdoc": {
        "methods": {}
    }
}